:100000000C945D000C9485000C9485000C94850084
:100010000C9485000C9485000C9485000C9485004C
:100020000C9485000C9485000C9485000C9485003C
:100030000C9485000C9485000C9485000C9485002C
:100040000C94ED020C9485000C945D030C94370322
:100050000C9485000C9485000C9485000C9485000C
:100060000C9485000C9485000000000024002700FB
:100070002A0000000000250028002B0004040404CE
:100080000404040402020202020203030303030342
:10009000010204081020408001020408102001021F
:1000A00004081020000000080002010000030407FB
:1000B0000000000000000000F80411241FBECFEF74
:1000C000D8E0DEBFCDBF11E0A0E0B1E0EEE9FAE09C
:1000D00002C005900D92A438B107D9F722E0A4E838
:1000E000B1E001C01D92A233B207E1F710E0CDE507
:1000F000D0E004C02197FE010E944705CC35D1070E
:10010000C9F70E948F030C944D050C940000EDEA92
:10011000F0E02491E9E9F0E09491E5E8F0E0E49181
:10012000EE23C9F0222339F0233001F1A8F4213065
:1001300019F1223029F1F0E0EE0FFF1FEE58FF4FCA
:10014000A591B4912FB7F894EC91811126C09095A8
:100150009E239C932FBF08952730A9F02830C9F023
:10016000243049F7209180002F7D03C0209180002A
:100170002F7720938000DFCF24B52F7724BDDBCFEE
:1001800024B52F7DFBCF2091B0002F772093B000B6
:10019000D2CF2091B0002F7DF9CF9E2BDACFE9E9A5
:1001A000F0E02491E5E8F0E08491882399F090E074
:1001B000880F991FFC01E859FF4FA591B491FC01EC
:1001C000EE58FF4F859194918FB7F894EC91E22B04
:1001D000EC938FBF0895CF93DF93EC010E94CF0083
:1001E000209729F480E0DF91CF910C948700CF3FD6
:1001F000D10511F481E0F7CFEDEAF0E0E491E330CE
:1002000029F140F4E130B1F0E230D9F0C038D10545
:100210008CF7E8CFE73021F1E83051F1E430B1F765
:1002200080918000806280938000D0938B00C09387
:100230008A0004C084B5806884BDC7BDDF91CF91BA
:10024000089584B5806284BDC8BDF8CF80918000D8
:10025000806880938000D0938900C0938800EECF9F
:100260008091B00080688093B000C093B300E6CF67
:100270008091B00080628093B000C093B400DECF64
:10028000AF92BF92CF92DF92EF92FF920F931F93A4
:10029000CF93DF936C017B018B01040F151FEB01E2
:1002A0005E01AE18BF08C017D10759F06991D60199
:1002B000ED91FC910190F081E02DC6010995892B0B
:1002C00079F7C501DF91CF911F910F91FF90EF90CA
:1002D000DF90CF90BF90AF900895FC01538D448D77
:1002E000252F30E0842F90E0821B930B541710F0E1
:1002F000CF96089501970895FC01918D828D9817EE
:1003000061F0A28DAE0FBF2FB11D5D968C91928DC5
:100310009F5F9F73928F90E008958FEF9FEF0895F6
:10032000FC01918D828D981731F0828DE80FF11DBF
:10033000858D90E008958FEF9FEF0895FC01918DDA
:10034000228D892F90E0805C9F4F821B91098F73D3
:100350009927089585E991E00E949E0121E0892B6B
:1003600009F420E0822F089580E090E0892B29F0A5
:100370000E94AA0181110C9400000895FC01A48D33
:10038000A80FB92FB11DA35ABF4F2C91848D90E0B7
:1003900001968F739927848FA689B7892C93A0899A
:1003A000B1898C91837080648C93938D848D981324
:1003B00006C00288F389E02D80818F7D80830895B7
:1003C000EF92FF920F931F93CF93DF93EC0181E0A5
:1003D000888F9B8D8C8D98131AC0E889F98980814C
:1003E00085FF15C09FB7F894EE89FF896083E8897F
:1003F000F98980818370806480839FBF81E090E071
:10040000DF91CF911F910F91FF90EF900895F62EFD
:100410000B8D10E00F5F1F4F0F731127E02E8C8D97
:100420008E110CC00FB607FCFACFE889F9898081DC
:1004300085FFF5CFCE010E94BE01F1CFEB8DEC0F11
:10044000FD2FF11DE35AFF4FF0829FB7F8940B8FF9
:10045000EA89FB8980818062CFCFCF93DF93EC0163
:10046000888D8823B9F0AA89BB89E889F9898C919C
:1004700085FD03C0808186FD0DC00FB607FCF7CF58
:100480008C9185FFF2CF808185FFEDCFCE010E9458
:10049000BE01E9CFDF91CF910895FC0101900020CA
:1004A000E9F73197AF01481B590BBC0185E991E091
:1004B0000C944001CF93DF930E944D02EC0182E146
:1004C00091E00E944D028C0F9D1FDF91CF91089506
:1004D0008F929F92AF92BF92CF92DF92EF92FF9254
:1004E0000F931F93CF93DF93CDB7DEB7A1970FB6CE
:1004F000F894DEBF0FBECDBF6C01990FEE08FF0868
:10050000F7FE47C06DE285E991E00E94E0018C01B1
:1005100022273327A9012C193D094E095F0919A289
:10052000CE0181967C019AE0892E912CA12CB12CD0
:10053000CA01B901A50194010E942505605DF7017A
:1005400062937F01211531054105510589F790E03E
:1005500080E0309719F0CF010E944D02080F191F5B
:1005600082E191E00E944D02800F911FA1960FB68B
:10057000F894DEBF0FBECDBFDF91CF911F910F91D9
:10058000FF90EF90DF90CF90BF90AF909F908F90B3
:100590000895A701960119A28E010F5D1F4F8AE0F1
:1005A000C82ED12CE12CF12CCA01B901A70196016A
:1005B0000E942505605DF80162938F0121153105C8
:1005C0004105510589F7309729F0CF010E944D026E
:1005D0008C01C6CF10E000E0C3CF1F920F920FB680
:1005E0000F9211242F933F938F939F93AF93BF93B9
:1005F0008091910190919201A0919301B091940109
:100600003091900123E0230F2D3758F50196A11D5D
:10061000B11D209390018093910190939201A0933A
:100620009301B093940180918C0190918D01A091E0
:100630008E01B0918F010196A11DB11D80938C0197
:1006400090938D01A0938E01B0938F01BF91AF91D4
:100650009F918F913F912F910F900FBE0F901F9000
:10066000189526E8230F0296A11DB11DD2CF1F9227
:100670000F920FB60F9211242F933F934F935F93D6
:100680006F937F938F939F93AF93BF93EF93FF935A
:1006900085E991E00E94BE01FF91EF91BF91AF917A
:1006A0009F918F917F916F915F914F913F912F918A
:1006B0000F900FBE0F901F9018951F920F920FB6BC
:1006C0000F9211242F938F939F93EF93FF93E091B9
:1006D000A501F091A6018081E091AB01F091AC0100
:1006E00082FD1BC090818091AE018F5F8F7320913E
:1006F000AF01821741F0E091AE01F0E0EB56FE4F02
:10070000958F8093AE01FF91EF919F918F912F91E3
:100710000F900FBE0F901F9018958081F4CF7894A2
:1007200084B5826084BD84B5816084BD85B58260F6
:1007300085BD85B5816085BD80916E0081608093A7
:100740006E00109281008091810082608093810010
:100750008091810081608093810080918000816020
:10076000809380008091B10084608093B10080917B
:10077000B00081608093B00080917A0084608093A3
:100780007A0080917A00826080937A0080917A006A
:10079000816080937A0080917A00806880937A00EB
:1007A0001092C1000E94CF0090E080E00E94EB0018
:1007B000E091A501F091A60182E08083E091A10182
:1007C000F091A2011082E091A301F091A40180E1D7
:1007D00080831092AD01E091A901F091AA0186E019
:1007E0008083E091A701F091A801808180618083DE
:1007F000E091A701F091A801808188608083E09159
:10080000A701F091A801808180688083E091A70111
:10081000F091A80180818F7D8083C0E0D0E001E06D
:1008200010E08FB7F894C0909101D0909201E090C1
:100830009301F09094018FBF80918A0190918B0178
:10084000009709F052C08091860190918701A09194
:100850008801B0918901A7019601281B390B4A0B29
:100860005B0BDA01C90184369105A105B10590F150
:1008700080918401909185018F3F910509F0F4F4F6
:100880000E94EB00C0928601D0928701E09288011D
:10089000F092890185E191E00E944D0280918401EE
:1008A000909185010E946802809184019091850158
:1008B000019690938501809384010CC08BE291E0B6
:1008C0000E945A0288E491E00E945A0210938B0120
:1008D00000938A01209709F4A4CF0E94AA018823DB
:1008E00009F49FCF0E9400009CCF8130910509F050
:1008F00059C08091860190918701A0918801B091A3
:100900008901A7019601281B390B4A0B5B0BDA0101
:10091000C90184369105A105B105E0F280918401F9
:100920009091850118161906D4F40E94EB00C0922C
:100930008601D0928701E0928801F092890185E1D9
:1009400091E00E944D0280918401909185010E9466
:10095000680280918401909185010197AACF892B2B
:1009600009F0B8CF85E691E00E945A0288E491E050
:100970000E945A02E0908401F0908501C7010E9414
:10098000EB0080918A0190918B01019690938B01ED
:1009900080938A013FEFE31AF30AF0928501E09217
:1009A000840198CF029709F095CF809186019091AC
:1009B0008701A0918801B0918901A7019601281BA8
:1009C000390B4A0B5B0BDA01C901803D9740A10549
:1009D000B10508F47FCFC0928601D0928701E092E2
:1009E0008801F092890110928B0110928A0172CFD6
:1009F000E5E9F1E01382128288EE93E0A0E0B0E036
:100A000084839583A683B78384E091E09183808378
:100A100085EC90E09587848784EC90E097878687C3
:100A200080EC90E0918B808B81EC90E0938B828BBB
:100A300082EC90E0958B848B86EC90E0978B868B94
:100A4000118E128E138E148E0895A1E21A2EAA1BF7
:100A5000BB1BFD010DC0AA1FBB1FEE1FFF1FA2176E
:100A6000B307E407F50720F0A21BB30BE40BF50B6B
:100A7000661F771F881F991F1A9469F760957095F4
:100A8000809590959B01AC01BD01CF010895EE0FBB
:0E0A9000FF1F0590F491E02D0994F894FFCF1C
:100A9E0000000000E00140016D012D029E017C016D
:100AAE0090010D0A005468652076616C7565206FA3
:100ABE0066205B695D2069733A20000A5475726E78
:100ACE00696E67204F4E204C454420656E6473203E
:100ADE00686572652E2E2E005F5F5F5F5F5F5F5FE2
:100AEE005F5F5F5F5F5F5F5F5F5F5F5F5F5F5F5F08
:100AFE005F5F5F0A000A5475726E696E67204F461B
:100B0E0046204C454420656E647320686572652EE0
:040B1E002E2E000077
:00000001FF
