:100000000C945C000C9479000C9479000C947900A9
:100010000C9479000C9479000C9479000C9479007C
:100020000C9479000C9479000C9479000C9479006C
:100030000C9479000C9479000C9479000C9479005C
:100040000C940D010C9479000C9479000C947900B7
:100050000C9479000C9479000C9479000C9479003C
:100060000C9479000C947900000000080002010053
:100070000003040700000000000000000000000072
:10008000250028002B0000000000240027002A0083
:10009000040404040404040402020202020203032E
:1000A0000303030301020408102040800102040836
:1000B000102001020408102011241FBECFEFD8E049
:1000C000DEBFCDBF11E0A0E0B1E0E8E1F7E002C0A3
:1000D00005900D92AA35B107D9F721E0AAE5B1E064
:1000E00001C01D92AE36B207E1F70E9457010C9491
:1000F0008A030C94000090E0FC01EC55FF4F249122
:1001000080579F4FFC018491882399F090E0880FDD
:10011000991FFC01EA57FF4FA591B491FC01E458E7
:10012000FF4F859194918FB7F894EC91E22BEC936B
:100130008FBF089590E0FC01E859FF4F2491FC0126
:10014000EC55FF4F3491FC01E057FF4FE491EE2353
:10015000C9F0222339F0233001F1A8F4213019F13C
:10016000223029F1F0E0EE0FFF1FE458FF4FA59178
:10017000B4918FB7F894EC91611126C030953E236D
:100180003C938FBF08952730A9F02830C9F0243060
:1001900049F7809180008F7D03C0809180008F7728
:1001A00080938000DFCF84B58F7784BDDBCF84B5AB
:1001B0008F7DFBCF8091B0008F778093B000D2CF3E
:1001C0008091B0008F7DF9CF3E2BDACFEF92FF9276
:1001D0000F931F93CF93DF930CE411E027E0289F48
:1001E0007001299FF00C1124D0E0C0E0F80180815B
:1001F0000E5F1F4FFE01EE0DFF1DEA5FFE4F608197
:100200000E949A002196C730D10581F7DF91CF91E6
:100210001F910F91FF90EF9008951F920F920FB6CC
:100220000F9211242F933F938F939F93AF93BF937C
:1002300080916A0190916B01A0916C01B0916D0168
:100240003091690123E0230F2D3758F50196A11D48
:10025000B11D2093690180936A0190936B01A09373
:100260006C01B0936D018091650190916601A09140
:100270006701B09168010196A11DB11D80936501D0
:1002800090936601A0936701B0936801BF91AF910D
:100290009F918F913F912F910F900FBE0F901F90C4
:1002A000189526E8230F0296A11DB11DD2CF789490
:1002B00084B5826084BD84B5816084BD85B582606B
:1002C00085BD85B5816085BD80916E00816080931C
:1002D0006E00109281008091810082608093810085
:1002E0008091810081608093810080918000816095
:1002F000809380008091B10084608093B1008091F0
:10030000B00081608093B00080917A008460809317
:100310007A0080917A00826080937A0080917A00DE
:10032000816080937A0080917A00806880937A005F
:100330001092C10082E00E947B0084E00E947B005A
:1003400083E00E947B00CCE4D1E0888122960E9469
:100350007B0021E0CA35D207C1F760E084E00E944B
:100360009A0060E082E00E949A0060E083E00E94D0
:100370009A0082E0282E312CC3E0D0E001E010E0AA
:100380008FB7F894C0906A01D0906B01E0906C0137
:10039000F0906D018FBF8FB7F89480906A019090B4
:1003A0006B01A0906C01B0906D018FBF80916301D3
:1003B000909164010097F1F580915F019091600147
:1003C000A0916101B0916201A7019601281B390B30
:1003D0004A0B5B0BDA01C901883E9340A105B105C8
:1003E000E8F090E080E00E94E60010936401009342
:1003F000630180915E0191E0892780935E01C09244
:100400005F01D0926001E0926101F09262018091FF
:10041000630190916401009709F0D2C090E080E000
:100420000E94E60080E090E0892B09F4A9CF0E94A9
:100430000000A6CF81309105D9F580915F019091A0
:100440006001A0916101B091620126013701481A53
:10045000590A6A0A7B0A48E2441643E254066104D8
:10046000710408F4B0C090E080E00E94E60050E122
:10047000451657E255066104710408F4A4C0309291
:1004800064012092630180915E0191E0892780934D
:100490005E01C0925F01D0926001E0926101F09232
:1004A000620189E090E09093050180930401AFCF51
:1004B0008230910509F04CC080915F0190916001FC
:1004C000A0916101B091620126013701481A590AD1
:1004D0006A0A7B0A98EB49169BE05906610471048D
:1004E00008F4AFC080915E0190E08823F1F080E0D5
:1004F0000E94E60020EA42162FE0520661047104D1
:1005000008F49FC0109364010093630110925E0190
:10051000C0925F01D0926001E0926101F0926201AD
:10052000D0930301C093020172CF80E00E94E600E5
:1005300030EA43163FE053066104710408F481C0B9
:10054000D0936401C093630181E080935E01E0CFAA
:10055000039709F067CF80915F0190916001A091AE
:100560006101B091620126013701481A590A6A0AED
:100570007B0A40E7441647E154066104710408F41D
:1005800096C090E080E00E94E60058E545165BE1E9
:1005900055066104710408F48AC030926401209207
:1005A0006301C0925F01D0926001E0926101F0921C
:1005B000620186E090E0909301018093000127CFD3
:1005C00081309105D9F561E084E00E949A0060E0F5
:1005D00082E00E949A0060E083E00E949A0080918D
:1005E0005A0190915B01A0915C01B0915D01A50160
:1005F0009401281B390B4A0B5B0BDA01C901883EB9
:100600009340A105B10508F40DCFE0900401F090EE
:100610000501F7FC07CFC7010E94E60041E0E41A9C
:10062000F108F0920501E092040180925A01909243
:100630005B01A0925C01B0925D01F4CE8230910525
:1006400099F560E084E00E949A0060E082E00E94F8
:100650009A0061E083E00E949A0080915A01909193
:100660005B01A0915C01B0915D01A5019401281B83
:10067000390B4A0B5B0BDA01C901883E9340A10597
:10068000B10508F4CFCEE0900201F0900301F7FC31
:10069000C9CEC7010E94E60041E0E41AF108F092D9
:1006A0000301E0920201C1CF039709F0BBCE60E0E5
:1006B00084E00E949A0061E082E00E949A0060E07B
:1006C00083E00E949A0080915A0190915B01A09171
:1006D0005C01B0915D01A5019401281B390B4A0B07
:1006E0005B0BDA01C901883E9340A105B10508F40E
:1006F00099CEE0900001F0900101F7FC93CEC70184
:100700000E94E60041E0E41AF108F0920101E09253
:0807100000018BCFF894FFCF2C
:1007180006000300090000000000000001010000BD
:1007280001010101000001000001000000000001BA
:1007380001000100000101000000010000010000AB
:10074800000100000000000000000101010100009C
:100758000000000000000000000100000500060085
:0A0768000700080009000A000B005A
:00000001FF
