:100000000C945D000C9485000C9485000C94850084
:100010000C9485000C9485000C9485000C9485004C
:100020000C9485000C9485000C9485000C9485003C
:100030000C9485000C9485000C9485000C9485002C
:100040000C94C6020C9485000C9436030C94100397
:100050000C9485000C9485000C9485000C9485000C
:100060000C9485000C94850000000008000201003B
:100070000003040700000000000000000000000072
:10008000250028002B0000000000240027002A0083
:10009000040404040404040402020202020203032E
:1000A0000303030301020408102040800102040836
:1000B0001020010204081020740611241FBECFEF87
:1000C000D8E0DEBFCDBF12E0A0E0B1E0E6E9FDE0A0
:1000D00002C005900D92A039B107D9F723E0A0E93D
:1000E000B2E001C01D92A134B207E1F710E0CDE506
:1000F000D0E004C02197FE010E94C306CC35D10791
:10010000C9F70E9468030C94C9060C94000090E0A3
:10011000FC01EC55FF4F249180579F4FFC018491C7
:10012000882399F090E0880F991FFC01EA57FF4F50
:10013000A591B491FC01E458FF4F859194918FB73C
:10014000F894EC91E22BEC938FBF089590E0FC01C2
:10015000E859FF4F2491FC01EC55FF4F3491FC010D
:10016000E057FF4FE491EE23C9F0222339F023300A
:1001700001F1A8F4213019F1223029F1F0E0EE0F5D
:10018000FF1FE458FF4FA591B4918FB7F894EC91FD
:10019000611126C030953E233C938FBF08952730D0
:1001A000A9F02830C9F0243049F7809180008F7D74
:1001B00003C0809180008F7780938000DFCF84B56B
:1001C0008F7784BDDBCF84B58F7DFBCF8091B0006E
:1001D0008F778093B000D2CF8091B0008F7DF9CF20
:1001E0003E2BDACFAF92BF92CF92DF92EF92FF9287
:1001F0000F931F93CF93DF936C017B018B01040F4F
:10020000151FEB015E01AE18BF08C017D10759F0EA
:100210006991D601ED91FC910190F081E02DC6012C
:100220000995892B79F7C501DF91CF911F910F9126
:10023000FF90EF90DF90CF90BF90AF900895FC01BA
:10024000538D448D252F30E0842F90E0821B930B3B
:10025000541710F0CF96089501970895FC01918DE1
:10026000828D981761F0A28DAE0FBF2FB11D5D96E4
:100270008C91928D9F5F9F73928F90E008958FEF86
:100280009FEF0895FC01918D828D981731F0828D3A
:10029000E80FF11D858D90E008958FEF9FEF089591
:1002A000FC01918D228D892F90E0805C9F4F821BF5
:1002B00091098F739927089584EA92E00E94500172
:1002C00021E0892B09F420E0822F089580E090E05E
:1002D000892B29F00E945C0181110C940000089583
:1002E000FC01A48DA80FB92FB11DA35ABF4F2C91AB
:1002F000848D90E001968F739927848FA689B789A2
:100300002C93A089B1898C91837080648C93938D98
:10031000848D981306C00288F389E02D80818F7D3B
:1003200080830895EF92FF920F931F93CF93DF93F3
:10033000EC0181E0888F9B8D8C8D98131AC0E88921
:10034000F989808185FF15C09FB7F894EE89FF89F0
:100350006083E889F98980818370806480839FBF8E
:1003600081E090E0DF91CF911F910F91FF90EF908E
:100370000895F62E0B8D10E00F5F1F4F0F7311279E
:10038000E02E8C8D8E110CC00FB607FCFACFE889D9
:10039000F989808185FFF5CFCE010E947001F1CFF0
:1003A000EB8DEC0FFD2FF11DE35AFF4FF0829FB74D
:1003B000F8940B8FEA89FB8980818062CFCFCF933D
:1003C000DF93EC01888D8823B9F0AA89BB89E8897D
:1003D000F9898C9185FD03C0808186FD0DC00FB623
:1003E00007FCF7CF8C9185FFF2CF808185FFEDCFA1
:1003F000CE010E947001E9CFDF91CF910895EF9275
:10040000FF920F931F93CF93DF930EE511E027E048
:10041000289F7001299FF00C1124D0E0C0E0F80162
:1004200080810E5F1F4FFE01EE0DFF1DEA5FFE4F44
:1004300060810E94A6002196C730D10581F7DF9127
:10044000CF911F910F91FF90EF900895FC010190C3
:100450000020E9F73197AF01481B590BBC0184EA32
:1004600092E00C94F200CF93DF930E942602EC01FD
:100470008CE691E00E9426028C0F9D1FDF91CF91A8
:1004800008958F929F92AF92BF92CF92DF92EF9298
:10049000FF920F931F93CF93DF93CDB7DEB7A19752
:1004A0000FB6F894DEBF0FBECDBF6C01990FEE08FA
:1004B000FF08F7FE47C06DE284EA92E00E949201D5
:1004C0008C0122273327A9012C193D094E095F0908
:1004D00019A2CE0181967C019AE0892E912CA12C43
:1004E000B12CCA01B901A50194010E94A106605D69
:1004F000F70162937F01211531054105510589F707
:1005000090E080E0309719F0CF010E942602080F9A
:10051000191F8CE691E00E942602800F911FA19680
:100520000FB6F894DEBF0FBECDBFDF91CF911F9104
:100530000F91FF90EF90DF90CF90BF90AF909F9082
:100540008F900895A701960119A28E010F5D1F4F8C
:100550008AE0C82ED12CE12CF12CCA01B901A701E7
:1005600096010E94A106605DF80162938F0121153A
:1005700031054105510589F7309729F0CF010E94D7
:1005800026028C01C6CF10E000E0C3CF1F920F926D
:100590000FB60F9211242F933F938F939F93AF9396
:1005A000BF938091A0029091A102A091A202B0916C
:1005B000A30230919F0223E0230F2D3758F50196B7
:1005C000A11DB11D20939F028093A0029093A102D0
:1005D000A093A202B093A30280919B0290919C02EF
:1005E000A0919D02B0919E020196A11DB11D809324
:1005F0009B0290939C02A0939D02B0939E02BF9198
:10060000AF919F918F913F912F910F900FBE0F90BF
:100610001F90189526E8230F0296A11DB11DD2CF79
:100620001F920F920FB60F9211242F933F934F9367
:100630005F936F937F938F939F93AF93BF93EF934A
:10064000FF9384EA92E00E947001FF91EF91BF91C5
:10065000AF919F918F917F916F915F914F913F915A
:100660002F910F900FBE0F901F9018951F920F9211
:100670000FB60F9211242F938F939F93EF93FF93B5
:10068000E091B402F091B5028081E091BA02F0915C
:10069000BB0282FD1BC090818091BD028F5F8F7372
:1006A0002091BE02821741F0E091BD02F0E0EC55CE
:1006B000FD4F958F8093BD02FF91EF919F918F9198
:1006C0002F910F900FBE0F901F9018958081F4CF3F
:1006D000789484B5826084BD84B5816084BD85B51D
:1006E000826085BD85B5816085BD80916E00816029
:1006F00080936E00109281008091810082608093CF
:1007000081008091810081608093810080918000D0
:100710008160809380008091B10084608093B100FB
:100720008091B00081608093B00080917A008460F5
:1007300080937A0080917A00826080937A00809121
:100740007A00816080937A0080917A00806880933B
:100750007A001092C10082E00E94870084E00E942B
:10076000870083E00E948700CEE5D1E08881229651
:100770000E94870021E0CC36D207C1F7E091B40295
:10078000F091B50282E08083E091B002F091B10275
:100790001082E091B202F091B3028FEC808310924C
:1007A000BC02E091B802F091B90286E08083E0914A
:1007B000B602F091B702808180618083E091B60239
:1007C000F091B702808188608083E091B602F09159
:1007D000B702808180688083E091B602F091B70211
:1007E00080818F7D80838FE691E00E94330260E0FC
:1007F00084E00E94A60060E082E00E94A60060E023
:1008000083E00E94A60082E0882E912C03E010E095
:10081000AA24A394B12C29E0222E312C8FB7F8946E
:100820004090A0025090A1026090A2027090A3029A
:100830008FBF8FB7F894C090A002D090A102E09033
:10084000A202F090A3028FBF8091990290919A0228
:10085000009709F05CC08091950290919602A0915A
:100860009702B0919802A3019201281B390B4A0B01
:100870005B0BDA01C901883E9340A105B105B0F1D7
:1008800084E891E00E94330290E080E00E94FF0142
:100890008091950290919602A0919702B091980252
:1008A000A3019201281B390B4A0B5B0BDA01C9012A
:1008B000883E9340A105B10590F0B0929A02A092B3
:1008C00099028091940291E089278093940240924A
:1008D00095025092960260929702709298028091CF
:1008E000990290919A02009709F020C190E080E06F
:1008F0000E94FF0140E050E0452B09F48FCF0E9499
:100900005C01882309F48ACF0E94000087CF8130E0
:10091000910509F04BC08091950290919602A091AB
:100920009702B0919802A3019201281B390B4A0B40
:100930005B0BDA01C90188329342A105B10508F4C5
:10094000F9C081EB91E00E94330290E080E00E94C8
:10095000FF018091950290919602A0919702B0912B
:100960009802A3019201281B390B4A0B5B0BDA0199
:10097000C90180319742A105B10508F4B0CF90922A
:100980009A02809299028091940291E08927809343
:100990009402409295025092960260929702709251
:1009A0009802309205012092040199CF823091057E
:1009B00009F072C08091950290919602A0919702E1
:1009C000B0919802A3019201281B390B4A0B5B0BD3
:1009D000DA01C901883B9B40A105B10508F4FBC0C1
:1009E000809194028823A9F184E891E00E94330267
:1009F00090E080E00E94FF01809195029091960224
:100A0000A0919702B0919802A3019201281B390B83
:100A10004A0B5B0BDA01C901803A9F40A105B10581
:100A200008F45DCFB0929A02A0929902809194024C
:100A300091E0892780939402409295025092960209
:100A40006092970270929802109303010093020142
:100A500046CF81EE91E00E94330290E080E00E9458
:100A6000FF018091950290919602A0919702B0911A
:100A70009802A3019201281B390B4A0B5B0BDA0188
:100A8000C901803A9F40A105B10508F428CF109311
:100A90009A0200939902CACF039709F02BCF809155
:100AA000950290919602A0919702B0919802A301AD
:100AB0009201281B390B4A0B5B0BDA01C901803705
:100AC0009741A105B10508F4CCC081EB91E00E94EB
:100AD000330290E080E00E94FF01809195029091A6
:100AE0009602A0919702B0919802A3019201281B4F
:100AF000390B4A0B5B0BDA01C90188359B41A10513
:100B0000B10508F4ECCE90929A028092990240923C
:100B1000950250929602609297027092980246E077
:100B200050E05093010140930001D9CE81309105EE
:100B300009F04DC061E084E00E94A60060E082E020
:100B40000E94A60060E083E00E94A60080E192E09F
:100B50000E94260280910401909105010E944102A9
:100B60008091900290919102A0919202B091930293
:100B7000A7019601281B390B4A0B5B0BDA01C9014F
:100B8000883E9340A105B10508F4B4CEC09104019C
:100B9000D0910501D7FDAECECE010E94FF01219775
:100BA000D0930501C09304018AE292E00E942602DC
:100BB00080910401909105010E944102C09290022F
:100BC000D0929102E0929202F092930293CE823000
:100BD000910509F043C060E084E00E94A60060E057
:100BE00082E00E94A60061E083E00E94A60083E408
:100BF00092E00E94260280910201909103010E94DE
:100C000041028091900290919102A0919202B09144
:100C10009302A7019601281B390B4A0B5B0BDA01E3
:100C2000C901883E9340A105B10508F463CEC09187
:100C30000201D0910301D7FD5DCECE010E94FF01DC
:100C40002197D0930301C09302018AE292E00E94AF
:100C500026028091020190910301AECF039709F023
:100C600049CE60E084E00E94A60061E082E00E943C
:100C7000A60060E083E00E94A6008DE592E00E945D
:100C8000260280910001909101010E944102809111
:100C9000900290919102A0919202B0919302A701CB
:100CA0009601281B390B4A0B5B0BDA01C901883E00
:100CB0009340A105B10508F41DCEC0910001D0916B
:100CC0000101D7FD17CECE010E94FF012197D093DD
:100CD0000101C093000187E792E00E942602809103
:100CE00000019091010168CFE4EAF2E013821282E0
:100CF00088EE93E0A0E0B0E084839583A683B78379
:100D000080E591E09183808385EC90E095878487EE
:100D100084EC90E09787868780EC90E0918B808BC5
:100D200081EC90E0938B828B82EC90E0958B848BAE
:100D300086EC90E0978B868B118E128E138E148E1C
:100D40000895A1E21A2EAA1BBB1BFD010DC0AA1F0C
:100D5000BB1FEE1FFF1FA217B307E407F50720F024
:100D6000A21BB30BE40BF50B661F771F881F991F9F
:100D70001A9469F760957095809590959B01AC01E8
:100D8000BD01CF010895EE0FFF1F0590F491E02DF6
:060D90000994F894FFCF66
:100D96000600030009000000000000000101000039
:100DA6000101010100000100000100000000000136
:100DB6000100010000010100000001000001000027
:100DC6000001000000000000000001010101000018
:100DD600000000000000000000010000000000000C
:100DE6009201F2001F01DF0150012E0142010500B0
:100DF60006000700080009000A000B000D0A005053
:100E0600726F6772616D20686173207374617274AA
:100E1600656421002D2D2D2D2D2D2D2D2D2D2D2DC6
:100E26002D2D524544204C45442053484F57494E9A
:100E3600472D2D2D2D2D2D2D2D2D2D2D2D2D2D2DC2
:100E4600002D2D2D2D2D2D2D2D2D2D2D2D2D2D4FD7
:100E560052414E4745204C45442053484F57494E32
:100E6600472D2D2D2D2D2D2D2D2D2D2D2D2D2D2D92
:100E7600002D2D2D2D2D2D2D2D2D2D2D2D2D2D47AF
:100E86005245454E204C45442053484F57494E47FE
:100E96002D2D2D2D2D2D2D2D2D2D2D2D2D2D2D00A9
:100EA6005274696D65206265666F72652069662099
:100EB6006C6F6F702069733A20005274696D6520FB
:100EC6006166746572206966206C6F6F7020697345
:100ED6003A20004F74696D65206265666F72652001
:100EE6006966206C6F6F702069733A2000477469D9
:100EF6006D65206265666F7265206966206C6F6F2E
:100F0600702069733A20004774696D6520616674C4
:100F16006572206966206C6F6F702069733A2000D5
:00000001FF
