:100000000C945D000C9485000C9485000C94850084
:100010000C9485000C9485000C9485000C9485004C
:100020000C9485000C9485000C9485000C9485003C
:100030000C9485000C9485000C9485000C9485002C
:100040000C94F7010C9485000C9467020C94410207
:100050000C9485000C9485000C9485000C9485000C
:100060000C9485000C9485000000000024002700FB
:100070002A0000000000250028002B0004040404CE
:100080000404040402020202020203030303030342
:10009000010204081020408001020408102001021F
:1000A00004081020000000080002010000030407FB
:1000B0000000000000000000320411241FBECFEF3A
:1000C000D8E0DEBFCDBF11E0A0E0B1E0EEECF8E09B
:1000D00002C005900D92AE35B107D9F722E0AEE52A
:1000E000B1E001C01D92AE30B207E1F710E0CDE5FE
:1000F000D0E004C02197FE010E945F04CC35D107F7
:10010000C9F70E9499020C9465040C940000E6EA79
:10011000F0E02491E2E9F0E09491EEE7F0E0E49180
:10012000EE23C9F0222339F0233001F1A8F4213065
:1001300019F1223029F1F0E0EE0FFF1FEE58FF4FCA
:10014000A591B4912FB7F894EC91811126C09095A8
:100150009E239C932FBF08952730A9F02830C9F023
:10016000243049F7209180002F7D03C0209180002A
:100170002F7720938000DFCF24B52F7724BDDBCFEE
:1001800024B52F7DFBCF2091B0002F772093B000B6
:10019000D2CF2091B0002F7DF9CF9E2BDACFAF9236
:1001A000BF92CF92DF92EF92FF920F931F93CF9364
:1001B000DF936C017B018B01040F151FEB015E01C6
:1001C000AE18BF08C017D10759F06991D601ED915B
:1001D000FC910190F081E02DC6010995892B79F7FA
:1001E000C501DF91CF911F910F91FF90EF90DF90AC
:1001F000CF90BF90AF900895FC01538D448D252F73
:1002000030E0842F90E0821B930B541710F0CF96B0
:10021000089501970895FC01918D828D981761F0E2
:10022000A28DAE0FBF2FB11D5D968C91928D9F5FF9
:100230009F73928F90E008958FEF9FEF0895FC01D8
:10024000918D828D981731F0828DE80FF11D858D8B
:1002500090E008958FEF9FEF0895FC01918D228D1E
:10026000892F90E0805C9F4F821B91098F739927A3
:10027000089581E791E00E942D0121E0892B09F486
:1002800020E0822F089580E090E0892B29F00E94E1
:10029000390181110C9400000895FC01A48DA80F70
:1002A000B92FB11DA35ABF4F2C91848D90E00196B8
:1002B0008F739927848FA689B7892C93A089B189D8
:1002C0008C91837080648C93938D848D981306C079
:1002D0000288F389E02D80818F7D80830895EF92DD
:1002E000FF920F931F93CF93DF93EC0181E0888FF0
:1002F0009B8D8C8D98131AC0E889F989808185FFC0
:1003000015C09FB7F894EE89FF896083E889F98961
:1003100080818370806480839FBF81E090E0DF9163
:10032000CF911F910F91FF90EF900895F62E0B8DB6
:1003300010E00F5F1F4F0F731127E02E8C8D8E1171
:100340000CC00FB607FCFACFE889F989808185FFD8
:10035000F5CFCE010E944D01F1CFEB8DEC0FFD2FBB
:10036000F11DE35AFF4FF0829FB7F8940B8FEA8993
:10037000FB8980818062CFCFCF93DF93EC01888DA2
:100380008823B9F0AA89BB89E889F9898C9185FD10
:1003900003C0808186FD0DC00FB607FCF7CF8C919E
:1003A00085FFF2CF808185FFEDCFCE010E944D0108
:1003B000E9CFDF91CF910895FC0101900020E9F78A
:1003C0003197AF01481B590BBC0181E791E00C94B8
:1003D000CF00CF93DF930E94DC01EC0182E191E03A
:1003E0000E94DC018C0F9D1FDF91CF9108951F9219
:1003F0000F920FB60F9211242F933F938F939F93D9
:10040000AF93BF9380916D0190916E01A0916F01A8
:10041000B091700130916C0123E0230F2D3758F516
:100420000196A11DB11D20936C0180936D019093E5
:100430006E01A0936F01B09370018091680190915B
:100440006901A0916A01B0916B010196A11DB11DD6
:100450008093680190936901A0936A01B0936B0146
:10046000BF91AF919F918F913F912F910F900FBEB0
:100470000F901F90189526E8230F0296A11DB11D1D
:10048000D2CF1F920F920FB60F9211242F933F934A
:100490004F935F936F937F938F939F93AF93BF938C
:1004A000EF93FF9381E791E00E944D01FF91EF915F
:1004B000BF91AF919F918F917F916F915F914F917C
:1004C0003F912F910F900FBE0F901F9018951F9284
:1004D0000F920FB60F9211242F938F939F93EF9348
:1004E000FF93E0918101F09182018081E091870189
:1004F000F091880182FD1BC0908180918A018F5FFD
:100500008F7320918B01821741F0E0918A01F0E016
:10051000EF58FE4F958F80938A01FF91EF919F9145
:100520008F912F910F900FBE0F901F901895808183
:10053000F4CF789484B5826084BD84B5816084BD35
:1005400085B5826085BD85B5816085BD80916E0071
:10055000816080936E0010928100809181008260A2
:1005600080938100809181008160809381008091DF
:1005700080008160809380008091B10084608093CE
:10058000B1008091B00081608093B00080917A00CA
:10059000846080937A0080917A00826080937A00F0
:1005A00080917A00816080937A0080917A008068DF
:1005B00080937A001092C100E2E9F0E02491EEE726
:1005C000F0E08491882399F090E0880F991FFC0156
:1005D000E859FF4FA591B491FC01EE58FF4F85916A
:1005E00094918FB7F894EC91E22BEC938FBFE0914C
:1005F0008101F091820182E08083E0917D01F091A0
:100600007E011082E0917F01F09180018FEC808368
:1006100010928901E0918501F091860186E0808346
:10062000E0918301F0918401808180618083E09179
:100630008301F0918401808188608083E09183014F
:10064000F0918401808180688083E0918301F09142
:10065000840180818F7D808385E191E00E94E901A2
:10066000C1E000E010E082E0E82EF12CCC24C3943D
:10067000D12C8FB7F89480906D0190906E01A0906E
:100680006F01B09070018FBF2091660130916701BA
:10069000809161012115310509F045C04091620149
:1006A00050916301609164017091650124013501ED
:1006B000441A550A660A770AB301A2014C32514026
:1006C0006105710508F048C080916101882309F433
:1006D000C5C080916001811116C080916601909122
:1006E0006701009709F083C080915E0190915F01DE
:1006F00003970CF46BC0D0926701C0926601109210
:100700005F0110925E01809161018093600101158B
:10071000110509F4AECF0E943901882309F4A9CF4D
:100720000E940000A6CF2130310511F540916201F1
:10073000509163016091640170916501240135015C
:10074000441A550A660A770AB301A2014438534095
:100750006105710508F4B8CF8C2780936101809200
:10076000620190926301A0926401B0926501ACCFE6
:100770002230310509F492CF2330310509F0A4CF9E
:100780004091620150916301609164017091650133
:1007900024013501441A550A660A770AB301A201F9
:1007A000403D57406105710508F48ECF8C2780933A
:1007B00061018092620190926301A0926401B09203
:1007C000650110926701109266017ECF81E00E9460
:1007D00087008CE291E00E94DC0180915E019091A3
:1007E0005F01019690935F0180935E018CCF813011
:1007F000910589F480915E0190915F0103972CF03F
:10080000F0926701E09266017ACF81E00E94870052
:100810008EE291E0E0CF029709F075CF80915E0102
:1008200090915F01039794F283E191E00E94E901C6
:1008300080E391E00E94E90187E491E00E94E901F0
:1008400080E391E00E94E901809166019091670147
:100850000196909367018093660151CF80E00E94DA
:10086000870051CFE1E7F1E01382128288EE93E036
:10087000A0E0B0E084839583A683B78384E091E011
:100880009183808385EC90E09587848784EC90E069
:100890009787868780EC90E0918B808B81EC90E04D
:1008A000938B828B82EC90E0958B848B86EC90E02E
:1008B000978B868B118E128E138E148E0895EE0FE9
:0E08C000FF1F0590F491E02D0994F894FFCFEE
:1008CE00000000006F01CF00FC00BC012D010B01E8
:1008DE001F010D0A00534F53204D6F727365204355
:1008EE006F646520426C696E6B6572002E002D0080
:1008FE005F5F5F5F5F5F5F5F5F5F5F5F5F5F5F5FFA
:10090E005F5F5F5F5F5F004D6F7273652050617454
:0E091E007465726E205265737461727400000D
:00000001FF
