:100000000C945D000C9485000C9485000C94850084
:100010000C9485000C9485000C9485000C9485004C
:100020000C9485000C9485000C9485000C9485003C
:100030000C9485000C9485000C9485000C9485002C
:100040000C94A1010C9485000C9411020C94EB010A
:100050000C9485000C9485000C9485000C9485000C
:100060000C9485000C9485000000000024002700FB
:100070002A0000000000250028002B0004040404CE
:100080000404040402020202020203030303030342
:10009000010204081020408001020408102001021F
:1000A00004081020000000080002010000030407FB
:1000B0000000000000000000440411241FBECFEF28
:1000C000D8E0DEBFCDBF11E0A0E0B1E0E2EFF8E0A4
:1000D00002C005900D92A033B107D9F721E0A0E34B
:1000E000B1E001C01D92A03EB207E1F710E0CDE5FE
:1000F000D0E004C02197FE010E947104CC35D107E5
:10010000C9F70E9443020C9477040C940000AF924C
:10011000BF92CF92DF92EF92FF920F931F93CF93F4
:10012000DF936C017B018B01040F151FEB015E0156
:10013000AE18BF08C017D10759F06991D601ED91EB
:10014000FC910190F081E02DC6010995892B79F78A
:10015000C501DF91CF911F910F91FF90EF90DF903C
:10016000CF90BF90AF900895FC01538D448D252F03
:1001700030E0842F90E0821B930B541710F0CF9641
:10018000089501970895FC01918D828D981761F073
:10019000A28DAE0FBF2FB11D5D968C91928D9F5F8A
:1001A0009F73928F90E008958FEF9FEF0895FC0169
:1001B000918D828D981731F0828DE80FF11D858D1C
:1001C00090E008958FEF9FEF0895FC01918D228DAF
:1001D000892F90E0805C9F4F821B91098F73992734
:1001E000089583E491E00E94E50021E0892B09F461
:1001F00020E0822F089580E090E0892B29F00E9472
:10020000F10081110C9400000895FC01A48DA80F49
:10021000B92FB11DA35ABF4F2C91848D90E0019648
:100220008F739927848FA689B7892C93A089B18968
:100230008C91837080648C93938D848D981306C009
:100240000288F389E02D80818F7D80830895EF926D
:10025000FF920F931F93CF93DF93EC0181E0888F80
:100260009B8D8C8D98131AC0E889F989808185FF50
:1002700015C09FB7F894EE89FF896083E889F989F2
:1002800080818370806480839FBF81E090E0DF91F4
:10029000CF911F910F91FF90EF900895F62E0B8D47
:1002A00010E00F5F1F4F0F731127E02E8C8D8E1102
:1002B0000CC00FB607FCFACFE889F989808185FF69
:1002C000F5CFCE010E940501F1CFEB8DEC0FFD2F94
:1002D000F11DE35AFF4FF0829FB7F8940B8FEA8924
:1002E000FB8980818062CFCFCF93DF93EC01888D33
:1002F0008823B9F0AA89BB89E889F9898C9185FDA1
:1003000003C0808186FD0DC00FB607FCF7CF8C912E
:1003100085FFF2CF808185FFEDCFCE010E940501E0
:10032000E9CFDF91CF910895FC0101900020E9F71A
:100330003197AF01481B590BBC0183E491E00C9449
:1003400087001F920F920FB60F9211242F933F93A5
:100350008F939F93AF93BF9380913F019091400102
:10036000A0914101B091420130913E0123E0230F61
:100370002D3758F50196A11DB11D20933E018093A4
:100380003F0190934001A0934101B09342018091BD
:100390003A0190913B01A0913C01B0913D01019641
:1003A000A11DB11D80933A0190933B01A0933C01A4
:1003B000B0933D01BF91AF919F918F913F912F914C
:1003C0000F900FBE0F901F90189526E8230F0296EE
:1003D000A11DB11DD2CF1F920F920FB60F92112403
:1003E0002F933F934F935F936F937F938F939F933D
:1003F000AF93BF93EF93FF9383E491E00E940501D5
:10040000FF91EF91BF91AF919F918F917F916F91EC
:100410005F914F913F912F910F900FBE0F901F90C2
:1004200018951F920F920FB60F9211242F938F934E
:100430009F93EF93FF93E0915301F09154018081DA
:10044000E0915901F0915A0182FD1BC09081809189
:100450005C018F5F8F7320915D01821741F0E09105
:100460005C01F0E0ED5BFE4F958F80935C01FF91A6
:10047000EF919F918F912F910F900FBE0F901F9032
:1004800018958081F4CFCF93DF9300D000D0CDB703
:10049000DEB7789484B5826084BD84B5816084BD04
:1004A00085B5826085BD85B5816085BD80916E0012
:1004B000816080936E001092810080918100826043
:1004C0008093810080918100816080938100809180
:1004D00080008160809380008091B100846080936F
:1004E000B1008091B00081608093B00080917A006B
:1004F000846080937A0080917A00826080937A0091
:1005000080917A00816080937A0080917A0080687F
:1005100080937A001092C100E2E9F0E024910EE7A6
:1005200010E0F8018491882399F090E0880F991FDA
:10053000FC01E859FF4FA591B491FC01EE58FF4F23
:10054000859194918FB7F8949C91292B2C938FBF10
:10055000E0915301F091540182E08083E0914F01DA
:10056000F09150011082E0915101F09152018FEC15
:10057000808310925B01E0915701F091580186E071
:100580008083E0915501F0915601808180618083E4
:10059000E0915501F0915601808188608083E0915F
:1005A0005501F0915601808180688083E09155016A
:1005B000F091560180818F7D808382E191E00E94DD
:1005C000940189E291E00E94940136EA632E30E0C2
:1005D000732E40E0E42E40E0F42E52E0C52ED12CE4
:1005E000AA24A394B12C73E0872E912C2FB7F894F2
:1005F00080913F0190914001A0914101B091420151
:100600002FBF20913801309139012115310509F0B2
:100610008BC02090340130903501409036015090CD
:1006200037019C01AD012219330944095509243FC2
:1006300031404105510508F08EC0509033015520DE
:1006400029F08091300191E0882311F0952D512CF3
:10065000F3012491E2E9F0E08491F801349133232D
:10066000F1F0222359F0233009F4C4C008F0B7C0D8
:10067000213009F4C5C0223009F4C6C0E32FF0E0F0
:10068000EE0FFF1FEE58FF4FA591B4912FB7F894CE
:100690009111C7C09C91809589238C932FBF809125
:1006A000380190913901009709F0CCC0552079F0BC
:1006B000809131019091320103970CF4B5C0B09252
:1006C0003901A092380110923201109231018091CB
:1006D0003801909139010297B9F45520A9F0809121
:1006E00031019091320103970CF4C0C0909239010E
:1006F00080923801109232011092310180913301C1
:10070000F1E08F2780933301809133018093300192
:10071000E114F10409F46ACF0E94F100882309F47E
:1007200065CF0E94000062CF2130310519F520907D
:1007300034013090350140903601509037019C01D2
:10074000AD0122193309440955092C3D35404105B5
:10075000510508F472CF20913301E1E02E27209358
:1007600033018093340190933501A0933601B09307
:10077000370163CF2230310509F44BCF23303105E7
:1007800009F05BCF20903401309035014090360164
:10079000509037019C01AD012219330944095509D4
:1007A000283B3B404105510508F447CF8093340175
:1007B00090933501A0933601B0933701109239011F
:1007C0001092380110923201109231018AE291E0C8
:1007D0000E94940189E291E00E9494012ECF27307B
:1007E000B1F02830D1F0243009F048CF20918000BA
:1007F0002F7D03C0209180002F77209380003ECF73
:1008000024B52F7724BD3ACF24B52F7DFBCF20917F
:10081000B0002F772093B00031CF2091B0002F7D12
:10082000F9CF9C91892B39CF8CE291E00E94940101
:100830008091310190913201019690933201809321
:10084000310145CF019709F042CF552009F43FCF40
:10085000809131019091320103972CF0D0923901AF
:10086000C092380130CF8EE291E0E0CF8CE291E08F
:100870000E949401809131019091320101969093F0
:1008800032018093310140CFE3E4F1E01382128220
:1008900088EE93E0A0E0B0E084839583A683B783DD
:1008A00084E091E09183808385EC90E09587848754
:1008B00084EC90E09787868780EC90E0918B808B2A
:1008C00081EC90E0938B828B82EC90E0958B848B13
:1008D00086EC90E0978B868B118E128E138E148E81
:1008E0000895EE0FFF1F0590F491E02D0994F89400
:0208F000FFCF38
:1008F2000000000027018700B4007401E500C30076
:10090200D700534F53204D6F72736520436F646558
:1009120020426C696E6B6572000D0A002E002D007C
:00000001FF
