:100000000C945C000C9479000C9479000C947900A9
:100010000C9479000C9479000C9479000C9479007C
:100020000C9479000C9479000C9479000C9479006C
:100030000C9479000C9479000C9479000C9479005C
:100040000C9435010C9479000C9479000C9479008F
:100050000C9479000C9479000C9479000C9479003C
:100060000C9479000C947900000000080002010053
:100070000003040700000000000000000000000072
:10008000250028002B0000000000240027002A0083
:10009000040404040404040402020202020203032E
:1000A0000303030301020408102040800102040836
:1000B000102001020408102011241FBECFEFD8E049
:1000C000DEBFCDBF11E0A0E0B1E0EAE9F5E002C09B
:1000D00005900D92A435B107D9F721E0A4E5B1E070
:1000E00001C01D92A736B207E1F70E947F010C9470
:1000F000CB020C94000090E0FC01EC55FF4F2491E2
:1001000080579F4FFC018491882399F090E0880FDD
:10011000991FFC01EA57FF4FA591B491FC01E458E7
:10012000FF4F859194918FB7F894EC91E22BEC936B
:100130008FBF089590E0FC01E859FF4F2491FC0126
:10014000EC55FF4F3491FC01E057FF4FE491EE2353
:10015000C9F0222339F0233001F1A8F4213019F13C
:10016000223029F1F0E0EE0FFF1FE458FF4FA59178
:10017000B4918FB7F894EC91611126C030953E236D
:100180003C938FBF08952730A9F02830C9F0243060
:1001900049F7809180008F7D03C0809180008F7728
:1001A00080938000DFCF84B58F7784BDDBCF84B5AB
:1001B0008F7DFBCF8091B0008F778093B000D2CF3E
:1001C0008091B0008F7DF9CF3E2BDACF3FB7F89406
:1001D0008091630190916401A0916501B0916601E5
:1001E00026B5A89B05C02F3F19F00196A11DB11D92
:1001F0003FBFBA2FA92F982F8827BC01CD01620FCE
:10020000711D811D911D42E0660F771F881F991F88
:100210004A95D1F708950F931F93CF93DF938C01E5
:100220008AE0809FE001819FD00D1124CC5FDE4FDA
:10023000688182E00E949A006A8184E00E949A00AC
:100240006C8187E00E949A006E8188E00E949A008B
:1002500068858CE00E949A001093030100930201CC
:10026000DF91CF911F910F9108951F920F920FB6BA
:100270000F9211242F933F938F939F93AF93BF932C
:1002800080915F0190916001A0916101B091620144
:1002900030915E0123E0230F2D3758F50196A11D03
:1002A000B11D20935E0180935F0190936001A09344
:1002B0006101B09362018091630190916401A0910A
:1002C0006501B09166010196A11DB11D8093630186
:1002D00090936401A0936501B0936601BF91AF91C3
:1002E0009F918F913F912F910F900FBE0F901F9074
:1002F000189526E8230F0296A11DB11DD2CF789440
:1003000084B5826084BD84B5816084BD85B582601A
:1003100085BD85B5816085BD80916E0081608093CB
:100320006E00109281008091810082608093810034
:100330008091810081608093810080918000816044
:10034000809380008091B10084608093B10080919F
:10035000B00081608093B00080917A0084608093C7
:100360007A0080917A00826080937A0080917A008E
:10037000816080937A0080917A00806880937A000F
:100380001092C10082E00E947B0084E00E947B000A
:1003900087E00E947B0088E00E947B008CE00E9446
:1003A0007B0060E082E00E949A0060E084E00E94AE
:1003B0009A0060E087E00E949A0060E088E00E9476
:1003C0009A0060E08CE00E949A0090E4B92EAA2482
:1003D000A39400E010E0D1E0B0927C0080917A001C
:1003E000806480937A0080917A0086FDFCCF8091B2
:1003F00078009091790090935D0180935C018F3F2C
:1004000093400CF456C080915A0190915B01892B66
:1004100009F04FC0C0915901CA25C09359010E94EB
:10042000E6006B017C0188EC482E512C612C712C6C
:100430000E94E6006C197D098E099F09683E734091
:1004400081059105A8F381E0481A510861087108F7
:1004500028EEC20E23E0D21EE11CF11C411451040F
:100460006104710429F7CC2309F479C08091020159
:10047000909103018F3F910509F468C090930101A9
:1004800080930001D09358010E940B012FB7F8947C
:1004900080915F0190916001A0916101B091620132
:1004A0002FBF8093540190935501A0935601B093B0
:1004B0005701809158018823D1F12FB7F89480918A
:1004C0005F0190916001A0916101B09162012FBF25
:1004D000409154015091550160915601709157011E
:1004E0006C017D01C41AD50AE60AF70AB701A60114
:1004F0004436510561057105D0F080935401909305
:100500005501A0935601B09357018091000190913D
:100510000101019688309105CCF5909301018093FB
:10052000000180910001909101010E940B018091D6
:100530005C0190915D0190935B0180935A010115DC
:10054000110509F449CF0E94000046CF1092010125
:1005500010920001D093580190E080E095CF109266
:10056000580160E082E00E949A0060E084E00E940E
:100570009A0060E087E00E949A0060E088E00E94B4
:100580009A0060E08CE00E949A0093CF10920101E3
:0A05900010920001C6CFF894FFCFCF
:10059A00FF00FF0001000000000000000000000052
:1005AA00010000000000000000000000010000003F
:1005BA000000000000000000010000000000000030
:1005CA00000000000100000000000000010000001F
:1005DA00000000000100000000000000010000000F
:0405EA00000000000D
:00000001FF
