:100000000C945C000C9479000C9479000C947900A9
:100010000C9479000C9479000C9479000C9479007C
:100020000C9479000C9479000C9479000C9479006C
:100030000C9479000C9479000C9479000C9479005C
:100040000C942B010C9479000C9479000C94790099
:100050000C9479000C9479000C9479000C9479003C
:100060000C9479000C947900000000080002010053
:100070000003040700000000000000000000000072
:10008000250028002B0000000000240027002A0083
:10009000040404040404040402020202020203032E
:1000A0000303030301020408102040800102040836
:1000B000102001020408102011241FBECFEFD8E049
:1000C000DEBFCDBF11E0A0E0B1E0E8E6F5E002C0A0
:1000D00005900D92AE36B107D9F721E0AEE6B1E05A
:1000E00001C01D92A338B207E1F70E9475010C947C
:1000F000B2020C94000090E0FC01EC55FF4F2491FB
:1001000080579F4FFC018491882399F090E0880FDD
:10011000991FFC01EA57FF4FA591B491FC01E458E7
:10012000FF4F859194918FB7F894EC91E22BEC936B
:100130008FBF089590E0FC01E859FF4F2491FC0126
:10014000EC55FF4F3491FC01E057FF4FE491EE2353
:10015000C9F0222339F0233001F1A8F4213019F13C
:10016000223029F1F0E0EE0FFF1FE458FF4FA59178
:10017000B4918FB7F894EC91611126C030953E236D
:100180003C938FBF08952730A9F02830C9F0243060
:1001900049F7809180008F7D03C0809180008F7728
:1001A00080938000DFCF84B58F7784BDDBCF84B5AB
:1001B0008F7DFBCF8091B0008F778093B000D2CF3E
:1001C0008091B0008F7DF9CF3E2BDACF3FB7F89406
:1001D00080917F0190918001A0918101B091820175
:1001E00026B5A89B05C02F3F19F00196A11DB11D92
:1001F0003FBFBA2FA92F982F8827BC01CD01620FCE
:10020000711D811D911D42E0660F771F881F991F88
:100210004A95D1F70895CF93DF932AE0289FE00114
:10022000299FD00D1124C050DF4F688182E00E94C9
:100230009A006A8184E00E949A006C8187E00E94A3
:100240009A006E8188E00E949A0068858CE0DF91B8
:10025000CF910C949A001F920F920FB60F92112417
:100260002F933F938F939F93AF93BF9380917B0185
:1002700090917C01A0917D01B0917E0130917A0135
:1002800023E0230F2D3758F50196A11DB11D2093B2
:100290007A0180937B0190937C01A0937D01B093C0
:1002A0007E0180917F0190918001A0918101B091A8
:1002B00082010196A11DB11D80937F019093800161
:1002C000A0938101B0938201BF91AF919F918F91D3
:1002D0003F912F910F900FBE0F901F90189526E819
:1002E000230F0296A11DB11DD2CF789484B58260F0
:1002F00084BD84B5816084BD85B5826085BD85B5CA
:10030000816085BD80916E00816080936E00109247
:1003100081008091810082608093810080918100C2
:100320008160809381008091800081608093800053
:100330008091B10084608093B1008091B0008160B1
:100340008093B00080917A00846080937A008091DD
:100350007A00826080937A0080917A008160809335
:100360007A0080917A00806880937A001092C100B0
:1003700082E00E947B0084E00E947B0087E00E9474
:100380007B0088E00E947B008CE00E947B0060E0A4
:1003900082E00E949A0060E084E00E949A0060E09F
:1003A00087E00E949A0060E088E00E949A0060E086
:1003B0008CE00E949A00D0E47724739400E010E06F
:1003C00066246394D0937C0080917A00806480934B
:1003D0007A0080917A0086FDFCCF80917800909120
:1003E000790090937901809378018F3F93400CF4CA
:1003F00050C08091760190917701892B09F049C016
:10040000C0917501C725C09375010E94E6004B019C
:100410005C0188ECC82ED12CE12CF12C0E94E60066
:10042000681979098A099B09683E7340810591051D
:10043000A8F381E0C81AD108E108F10828EE820E7D
:1004400023E0921EA11CB11CC114D104E104F104EB
:1004500029F7CC2309F46AC0109274011092730139
:100460006092720190E080E00E940B012FB7F89437
:1004700080917B0190917C01A0917D01B0917E01E2
:100480002FBF80936E0190936F01A0937001B09382
:100490007101809172018823D1F12FB7F894809176
:1004A0007B0190917C01A0917D01B0917E012FBFD5
:1004B00040916E0150916F016091700170917101D6
:1004C0006C017D01C41AD50AE60AF70AB701A60134
:1004D0004436510561057105D0F080936E0190930B
:1004E0006F01A0937001B09371018091730190919D
:1004F000740101968B30910584F59093740180937B
:10050000730180917301909174010E940B0180919D
:10051000780190917901909377018093760101158C
:10052000110509F44FCF0E9400004CCF10927201C8
:1005300060E082E00E949A0060E084E00E949A00FD
:1005400060E087E00E949A0060E088E00E949A00E4
:1005500060E08CE00E949A009CCF1092740110928F
:080560007301CFCFF894FFCF27
:100568000100000000000000000001000100000080
:100578000000000000000100010000000000000071
:100588000000010001000000000000000000010060
:100598000100000000000000000001000000000051
:1005A800000001000100000000000100010000003F
:1005B800000001000100000000000100010000002F
:0E05C800000000000000000000000000000025
:00000001FF
