:100000000C945C000C9479000C9479000C947900A9
:100010000C9479000C9479000C9479000C9479007C
:100020000C9479000C9479000C9479000C9479006C
:100030000C9479000C9479000C9479000C9479005C
:100040000C94E6000C9479000C9479000C947900DF
:100050000C9479000C9479000C9479000C9479003C
:100060000C9479000C947900000000080002010053
:100070000003040700000000000000000000000072
:10008000250028002B0000000000240027002A0083
:10009000040404040404040402020202020203032E
:1000A0000303030301020408102040800102040836
:1000B000102001020408102011241FBECFEFD8E049
:1000C000DEBFCDBF11E0A0E0B1E0ECE0F6E002C0A1
:1000D00005900D92A831B107D9F721E0A8E1B1E070
:1000E00001C01D92A732B207E1F70E9430010C94C3
:1000F00004030C94000090E0FC01EC55FF4F2491A8
:1001000080579F4FFC018491882399F090E0880FDD
:10011000991FFC01EA57FF4FA591B491FC01E458E7
:10012000FF4F859194918FB7F894EC91E22BEC936B
:100130008FBF089590E0FC01E859FF4F2491FC0126
:10014000EC55FF4F3491FC01E057FF4FE491EE2353
:10015000C9F0222339F0233001F1A8F4213019F13C
:10016000223029F1F0E0EE0FFF1FE458FF4FA59178
:10017000B4918FB7F894EC91611126C030953E236D
:100180003C938FBF08952730A9F02830C9F0243060
:1001900049F7809180008F7D03C0809180008F7728
:1001A00080938000DFCF84B58F7784BDDBCF84B5AB
:1001B0008F7DFBCF8091B0008F778093B000D2CF3E
:1001C0008091B0008F7DF9CF3E2BDACF1F920F9236
:1001D0000FB60F9211242F933F938F939F93AF935A
:1001E000BF938091230190912401A0912501B091AA
:1001F00026013091220123E0230F2D3758F5019677
:10020000A11DB11D2093220180932301909324010D
:10021000A0932501B093260180911E0190911F01AA
:10022000A0912001B09121010196A11DB11D8093E3
:100230001E0190931F01A0932001B0932101BF9153
:10024000AF919F918F913F912F910F900FBE0F9083
:100250001F90189526E8230F0296A11DB11DD2CF3D
:10026000789484B5826084BD84B5816084BD85B591
:10027000826085BD85B5816085BD80916E0081609D
:1002800080936E0010928100809181008260809343
:100290008100809181008160809381008091800045
:1002A0008160809380008091B10084608093B10070
:1002B0008091B00081608093B00080917A0084606A
:1002C00080937A0080917A00826080937A00809196
:1002D0007A00816080937A0080917A0080688093B0
:1002E0007A001092C10000E011E066E0E62E61E0C5
:1002F000F62E7CE0C72E71E0D72EC2E1D1E08881D6
:1003000022960E947B00F6018081F2E0CF0ED11C84
:100310000E947B00F7018081F2E0EF0EF11C0E9449
:100320007B00F80180810E5F1F4F0E947B00F1E08F
:10033000CA31DF0721F724E0422E512C33E0632E2F
:10034000712C42E0C42ED12CAA24A394B12C2FB737
:10035000F8948091230190912401A0912501B091FE
:1003600026012FBF20911C0130911D01211531055F
:1003700009F075C0409118015091190160911A015E
:1003800070911B018C019D01041B150B260B370B73
:10039000B901A801403157426105710560F0B09282
:1003A0001D01A0921C018093180190931901A09344
:1003B0001A01B0931B01C0E0D1E006E011E08CE02F
:1003C000E82E81E0F82E92E1892E91E0992EF40139
:1003D0008081F2E08F0E911C60E00E949A00F7018C
:1003E0008081F2E0EF0EF11C60E00E949A00F801BB
:1003F00030800E5F1F4F832D0E947B0060E0832DB5
:100400000E949A0038802296832D0E947B0060E033
:10041000832D0E949A00FAE18F16F1E09F06B9F64B
:1004200080911C0190911D01009709F0B1C061E01D
:1004300082E00E949A0061E088E00E949A0061E0F8
:1004400086E00E949A0061E08BE00E949A0000E042
:1004500010E0012B09F47BCF0E94000078CF2130FF
:100460003105D9F4409118015091190160911A0198
:1004700070911B018C019D01041B150B260B370B82
:10048000B901A801483B5B406105710508F493CFB1
:10049000D0921D01C0921C0186CF22303105D9F4C3
:1004A000409118015091190160911A0170911B013E
:1004B0008C019D01041B150B260B370BB901A801FC
:1004C000483E53406105710508F475CF70921D01D7
:1004D00060921C0168CF23303105D9F44091180196
:1004E0005091190160911A0170911B018C019D01BD
:1004F000041B150B260B370BB901A80140315742DD
:100500006105710508F457CF50921D0140921C01FE
:100510004ACF24303105E9F4409118015091190176
:1005200060911A0170911B018C019D01041B150B38
:10053000260B370BB901A801483B5B4061057105EB
:1005400008F439CF25E030E030931D0120931C01E1
:100550002ACF2530310509F02ECF40911801509156
:10056000190160911A0170911B018C019D01041BFE
:10057000150B260B370BB901A801483E5340610506
:10058000710508F418CF10921D0110921C010BCFB9
:100590008130910539F461E084E00E949A0061E0C5
:1005A0008CE04BCF8230910539F461E087E00E9406
:1005B0009A0061E08DE041CF8330910579F461E0EC
:1005C00087E00E949A0061E08DE00E949A0061E05D
:1005D00083E00E949A0061E089E037CF8430910582
:1005E00079F461E087E00E949A0061E08DE00E946A
:1005F0009A0061E085E00E949A0061E08AE025CFE0
:0C060000059709F024CFD1CFF894FFCF6C
:10060C0009000A000B0003000500060008000C009E
:08061C000D00020004000700BC
:00000001FF
