:100000000C945D000C9485000C9485000C94850084
:100010000C9485000C9485000C9485000C9485004C
:100020000C9485000C9485000C9485000C9485003C
:100030000C9485000C9485000C9485000C9485002C
:100040000C946B020C9485000C94DB020C94B502AA
:100050000C9485000C9485000C9485000C9485000C
:100060000C9485000C94850000000008000201003B
:100070000003040700000000000000000000000072
:10008000250028002B0000000000240027002A0083
:10009000040404040404040402020202020203032E
:1000A0000303030301020408102040800102040836
:1000B0001020010204081020470411241FBECFEFB6
:1000C000D8E0DEBFCDBF11E0A0E0B1E0E8EFF8E09E
:1000D00002C005900D92A434B107D9F721E0A4E441
:1000E000B1E001C01D92A03FB207E1F710E0CDE5FD
:1000F000D0E004C02197FE010E947404CC35D107E2
:10010000C9F70E940D030C947A040C940000E7EAEE
:10011000F0E02491E3E9F0E08491882399F090E005
:10012000880F991FFC01EA57FF4FA591B491FC017C
:10013000E458FF4F859194918FB7F894EC91E22B9E
:10014000EC938FBF0895EBE6F0E02491E7EAF0E04E
:100150009491E3E9F0E0E491EE23C9F0222339F031
:10016000233001F1A8F4213019F1223029F1F0E017
:10017000EE0FFF1FE458FF4FA591B4912FB7F894ED
:10018000EC91811126C090959E239C932FBF0895DA
:100190002730A9F02830C9F0243049F72091800099
:1001A0002F7D03C0209180002F7720938000DFCF28
:1001B00024B52F7724BDDBCF24B52F7DFBCF209135
:1001C000B0002F772093B000D2CF2091B0002F7DC8
:1001D000F9CF9E2BDACFEBE6F0E0E491E33029F1A2
:1001E00050F4E130C1F0E230D9F080389105BCF52F
:1001F00080E00C94A300E73011F1E83041F1E430E5
:10020000A1F72091800020622093800090938B00C2
:1002100080938A00089594B5906894BD87BD089531
:1002200094B5906294BD88BD0895209180002068A7
:100230002093800090938900809388000895909186
:10024000B00090689093B0008093B30008959091AF
:10025000B00090629093B0008093B400089581E064
:10026000C8CF8E50806480937C0080917A00806437
:1002700080937A0080917A0086FDFCCF809178008F
:10028000909179000895AF92BF92CF92DF92EF9252
:10029000FF920F931F93CF93DF936C017B018B0130
:1002A000040F151FEB015E01AE18BF08C017D10780
:1002B00059F06991D601ED91FC910190F081E02D0A
:1002C000C6010995892B79F7C501DF91CF911F915F
:1002D0000F91FF90EF90DF90CF90BF90AF90089577
:1002E000FC01538D448D252F30E0842F90E0821B3C
:1002F000930B541710F0CF96089501970895FC01C1
:10030000918D828D981761F0A28DAE0FBF2FB11D18
:100310005D968C91928D9F5F9F73928F90E0089570
:100320008FEF9FEF0895FC01918D828D981731F02A
:10033000828DE80FF11D858D90E008958FEF9FEF7E
:100340000895FC01918D228D892F90E0805C9F4F54
:10035000821B91098F739927089583E591E00E948C
:10036000A10121E0892B09F420E0822F089580E08B
:1003700090E0892B29F00E94AD0181110C940000BE
:100380000895FC01A48DA80FB92FB11DA35ABF4F2A
:100390002C91848D90E001968F739927848FA68984
:1003A000B7892C93A089B1898C91837080648C93D8
:1003B000938D848D981306C00288F389E02D808187
:1003C0008F7D80830895EF92FF920F931F93CF93B9
:1003D000DF93EC0181E0888F9B8D8C8D98131AC080
:1003E000E889F989808185FF15C09FB7F894EE8967
:1003F000FF896083E889F9898081837080648083C4
:100400009FBF81E090E0DF91CF911F910F91FF900E
:10041000EF900895F62E0B8D10E00F5F1F4F0F73B6
:100420001127E02E8C8D8E110CC00FB607FCFACF71
:10043000E889F989808185FFF5CFCE010E94C1014D
:10044000F1CFEB8DEC0FFD2FF11DE35AFF4FF08242
:100450009FB7F8940B8FEA89FB8980818062CFCFA8
:10046000CF93DF93EC01888D8823B9F0AA89BB89EB
:10047000E889F9898C9185FD03C0808186FD0DC0D6
:100480000FB607FCF7CF8C9185FFF2CF808185FFF7
:10049000EDCFCE010E94C101E9CFDF91CF91089548
:1004A000FC0101900020E9F73197AF01481B590B7F
:1004B000BC0183E591E00C944301CF93DF930E944C
:1004C0005002EC0182E191E00E9450028C0F9D1FCE
:1004D000DF91CF9108951F920F920FB60F921124C2
:1004E0002F933F938F939F93AF93BF9380914F012F
:1004F00090915001A0915101B091520130914E0163
:1005000023E0230F2D3758F50196A11DB11D20932F
:100510004E0180934F0190935001A0935101B093ED
:10052000520180914A0190914B01A0914C01B091F0
:100530004D010196A11DB11D80934A0190934B017D
:10054000A0934C01B0934D01BF91AF919F918F91BA
:100550003F912F910F900FBE0F901F90189526E896
:10056000230F0296A11DB11DD2CF1F920F920FB67D
:100570000F9211242F933F934F935F936F937F9329
:100580008F939F93AF93BF93EF93FF9383E591E096
:100590000E94C101FF91EF91BF91AF919F918F9107
:1005A0007F916F915F914F913F912F910F900FBE6F
:1005B0000F901F9018951F920F920FB60F92112453
:1005C0002F938F939F93EF93FF93E0916301F091AB
:1005D00064018081E0916901F0916A0182FD1BC094
:1005E000908180916C018F5F8F7320916D018217D4
:1005F00041F0E0916C01F0E0ED5AFE4F958F809351
:100600006C01FF91EF919F918F912F910F900FBEF1
:100610000F901F9018958081F4CF789484B58260F4
:1006200084BD84B5816084BD85B5826085BD85B596
:10063000816085BD80916E00816080936E00109214
:10064000810080918100826080938100809181008F
:100650008160809381008091800081608093800020
:100660008091B10084608093B1008091B00081607E
:100670008093B00080917A00846080937A008091AA
:100680007A00826080937A0080917A008160809302
:100690007A0080917A00806880937A001092C1007D
:1006A0000E948700E0916301F091640182E0808301
:1006B000E0915F01F09160011082E0916101F091A1
:1006C000620180E1808310926B01E0916701F091FB
:1006D000680186E08083E0916501F0916601808188
:1006E00080618083E0916501F0916601808188607E
:1006F0008083E0916501F09166018081806880834C
:10070000E0916501F091660180818F7D808380E0BA
:10071000C82E80E0D82E8FB7F89480904F0190902B
:100720005001A0905101B09052018FBF8EE00E9405
:1007300031017C018FE00E9431012C0180E10E9497
:1007400031018C0181E10E9431013C0129EEE21668
:1007500023E0F2062CF539EE431633E053064CF550
:10076000C1E0093E43E014076CF5893E93400CF468
:10077000C0E089EE681683E0780624F5C0E08C2F8F
:1007800090E09093490180934801C114D10419F27B
:100790000E94AD01882309F4BECF0E940000BBCFA8
:1007A00029EE421623E0520624F4093E23E0120704
:1007B00014F0C1E007C0C1E039EE631633E0730600
:1007C0000CF4C0E08091480190914901892B09F017
:1007D0005CC08091440190914501A0914601B09187
:1007E0004701A5019401281B390B4A0B5B0BDA0169
:1007F000C901883C9105A105B10508F446C085E111
:1008000091E00E9450028092440190924501A09292
:100810004601B0924701CC2351F139EE431633E043
:1008200053065CF00E94870085E590E00E94EB0093
:1008300089E391E00E945D02A2CF093E13404CF093
:100840000E9487008AEA90E00E94EB008CE391E02E
:10085000F1CF59EE651653E075060CF490CF0E9467
:10086000870081E00E94A30080E491E0E3CF89EE5D
:10087000E81683E0F8064CF00E94870080E00E94B2
:10088000A3008EE391E00E945D02C1E078CFE3E532
:10089000F1E01382128288EE93E0A0E0B0E084835E
:1008A0009583A683B78384E091E09183808385EC70
:1008B00090E09587848784EC90E09787868780EC2A
:1008C00090E0918B808B81EC90E0938B828B82EC1B
:1008D00090E0958B848B86EC90E0978B868B118EC5
:1008E000128E138E148E0895EE0FFF1F0590F49153
:0808F000E02D0994F894FFCFFC
:1008F80000000000E301430170013002A1017F0103
:1009080093010D0A005468652076616C7565206F47
:1009180066204F555450555420746F2074686520D4
:100928004C45442069733A2000383500313730008F
:04093800323535001F
:00000001FF
